:100000000C9438000C9455000C9469030C94520322
:100010000C9455000C9455000C9455000C9455000C
:100020000C9455000C9455000C9455000C945500FC
:100030000C9455000C9455000C9455000C945500EC
:100040000C9455000C9455000C9455000C945500DC
:100050000C9455000C9455000C9455000C945500CC
:100060000C9455000C9455000C9455000C945500BC
:1000700011241FBECFEFD4E0DEBFCDBF11E0A0E062
:10008000B1E0E6EAF6E102C005900D92AE33B107A9
:10009000D9F721E0AEE3B1E001C01D92AC34B20764
:1000A000E1F70E94A9020C94510B0C940000CF932D
:1000B000DF93CDB7DEB70E94A40140E450E060EFCB
:1000C00070E08FE090E00E9485014FE950E06FE919
:1000D00070E08BE290E00E948501DF91CF9108955E
:1000E000EF92FF920F931F93CF93DF93CDB7DEB7BD
:1000F0002C970FB6F894DEBF0FBECDBFEA82FB820D
:100100000C831D832E833F83488759876A877B87AB
:100110008C87198216C08981882F90E09E012B5F01
:100120003F4F820F931FFC018081282F30E089818F
:10013000882F90E0C696B9010E946C0189818F5F7B
:1001400089839C818981891730F38C81882F90E085
:10015000BC0185E390E00E946C018A819B819695A9
:1001600087959695879596958795BC0181E390E054
:100170000E946C018A819B81880F991F82959295BC
:10018000907F9827807F9827BC0182E390E00E94AF
:100190006C0148E050E068E070E080E390E00E948D
:1001A00085012C960FB6F894DEBF0FBECDBFDF9150
:1001B000CF911F910F91FF90EF9008950F931F9390
:1001C000CF93DF93CDB7DEB728970FB6F894DEBF95
:1001D0000FBECDBF8E8378876F838E81882F90E08E
:1001E00001970E945201282F2F708F819885FC0162
:1001F0002283198218C08981082F10E08E81282F50
:1002000030E08981882F90E0820F931F0E94520175
:10021000282F8F819885800F911F0396FC012083E2
:1002200089818F5F89838F819885FC019281898183
:10023000891708F38E81882F90E004970E9452015D
:100240009595879595958795959587959595879596
:1002500095958795877099279B838A838E81882FB0
:1002600090E005970E945201880F991F880F991FEF
:10027000880F991F9D838C832A813B818C819D816E
:10028000280F391F8F819885FC01318320832896A0
:100290000FB6F894DEBF0FBECDBFDF91CF911F9197
:1002A0000F910895CF93DF9300D0CDB7DEB78A8347
:1002B0000E948B0483E00E9471048A810E94710471
:1002C00080E00E94710489830E949B0489810F90C1
:1002D0000F90DF91CF910895CF93DF9300D0CDB7EA
:1002E000DEB789836A830E948B0482E00E947104D6
:1002F00089810E9471048A810E9471040E949B047A
:100300000F900F90DF91CF910895CF93DF9300D09E
:100310001F92CDB7DEB789836A834B830E948B041B
:1003200085E00E94710489810E9471048A810E9483
:1003300071048B810E9471040E949B040F900F90A6
:100340000F90DF91CF910895CF93DF93CDB7DEB7B4
:100350000E948B0480EC0E9471040E949B04DF9138
:10036000CF910895CF93DF9300D01F92CDB7DEB722
:100370008B8380E090E19A83898389819A812B81A4
:10038000FC0120830F900F900F90DF91CF91089583
:10039000CF93DF9300D01F92CDB7DEB78B8380E081
:1003A00092E19A83898389819A812B81FC01208340
:1003B0000F900F900F90DF91CF910895CF93DF931F
:1003C0001F92CDB7DEB7198208C08981882F90E0CF
:1003D0000E942B0289818F5F898389818830A8F3ED
:1003E0000E94F6010F90DF91CF910895CF93DF9394
:1003F000CDB7DEB760E070E080E090E00E9444029C
:10040000DF91CF910895CF93DF931F92CDB7DEB7E1
:100410008983898180933F01898180550E94B2013F
:100420000F90DF91CF910895CF93DF931F92CDB7B7
:10043000DEB78983898180933E0189818F700E9414
:10044000B201898182958F70805F0E94B2010F9006
:10045000DF91CF910895CF93DF9300D0CDB7DEB772
:100460008A838A810E940302198206C080E00E946A
:10047000C80189818F5F898389818823BCF70F90A8
:100480000F90DF91CF910895CF93DF9300D0CDB738
:10049000DEB789836A838A8180933E018981809354
:1004A0003F0189810E9403028A810E9414020F90F9
:1004B0000F90DF91CF910895CF93DF93CDB7DEB743
:1004C0008EEA0E94B20181EA0E94B2018AED0E9486
:1004D000B20182E10E94B20188EC0E94B20188EA76
:1004E0000E94B2018FE30E94B20185ED0E94B20129
:1004F00080E80E94B20181E80E94B20180E50E947A
:10050000B20189ED0E94B20181E20E94B20180E253
:100510000E94B20182E00E94B2018BED0E94B20102
:1005200080E30E94B2018DEA0E94B20180E00E9445
:10053000B20184EA0E94B20186EA0E94B2018FEA07
:100540000E94B2010E94F6010E94DE01DF91CF916C
:100550000895EF92FF920F931F93CF93DF93CDB740
:10056000DEB768970FB6F894DEBF0FBECDBF8FE140
:1005700090E00E9497050E94AB040E945C020E94DA
:1005800000040E949D030E9419040E94570086E007
:1005900091E00E942B072BE0CE010396FC01322F45
:1005A00011923A95E9F784E190E09C838B8384E093
:1005B0008D8383E08E8382E08F8383E0888787E06A
:1005C000898786E08A8780914101882309F458C091
:1005D000CE010E96BC0186E60E94DE008AE191E023
:1005E000892F8F938AE191E08F930E9417070F90D4
:1005F0000F901A82198220C09E012F5E3F4F898181
:100600009A81820F931FFC018081882F90E0292F0F
:100610002F938F9380E291E0892F8F9380E291E076
:100620008F930E9417070F900F900F900F90898162
:100630009A8101969A8389838889282F30E089815D
:100640009A8182179307C4F22E853F858889882F67
:1006500090E0432F4F932F93292F2F938F9384E272
:1006600091E0892F8F9384E291E08F930E94170786
:100670000F900F900F900F900F900F9010924101DC
:10068000EB80FC800D811E812F81388549855A853C
:100690006B857C858D850E94700088EE93E00E94BA
:1006A000D60491CF1F920F9200905F000F921124F9
:1006B0008F93CF93DF93CDB7DEB781E08093400176
:1006C000DF91CF918F910F9000925F000F901F905C
:1006D00018951F920F9200905F000F9211242F9394
:1006E0003F934F935F936F937F938F939F93AF93BA
:1006F000BF93EF93FF93CF93DF93CDB7DEB78CE239
:100700000E9452018093410140E06FEF8CE20E9411
:100710008501DF91CF91FF91EF91BF91AF919F91B3
:100720008F917F916F915F914F913F912F910F909A
:1007300000925F000F901F901895CF93DF93CDB775
:10074000DEB7F8948BE590E02BE530E0F9012081ED
:100750002F7DFC01208386E590E026E530E0F9015D
:1007600020812E7FFC0120838AE590E02AE530E09D
:10077000F90120812F7DFC01208385E590E025E5AE
:1007800030E0F90120812860FC01208385E590E0BC
:1007900025E530E0F90120812B7FFC0120838AE5EB
:1007A00090E02AE530E0F90120812F77FC012083D9
:1007B00085E590E025E530E0F90120812160FC012C
:1007C000208385E590E025E530E0F9012081226075
:1007D000FC0120838BE590E02BE530E0F9012081DE
:1007E0002062FC0120838BE590E02BE530E0F901ED
:1007F00020812068FC0120837894DF91CF910895B7
:10080000CF93DF93CDB7DEB786E290E026E230E00B
:10081000F90120812160FC01208387E290E027E23A
:1008200030E0F90120812160FC012083DF91CF912C
:100830000895CF93DF93CDB7DEB787E390E027E34A
:1008400030E0F90120812061FC01208387E390E002
:1008500027E330E0F90120812062FC01208387E357
:1008600090E027E330E0F90120812F7BFC01208319
:1008700088E390E028E330E0F90120812064FC0166
:10088000208387E390E027E330E0F90120812068AE
:10089000FC0120838DE290E02DE230E0F90120811F
:1008A0002064FC0120838DE290E02DE230E0F9012C
:1008B00020812160FC01208388E390E028E330E080
:1008C000F90120812061FC0120838DE290E02DE27E
:1008D00030E0F90120812061FC012083DF91CF917C
:1008E0000895CF93DF931F92CDB7DEB789838FE250
:1008F00090E02981FC01208300008EE290E0FC0161
:1009000080818823D4F78FE290E0FC0180810F90F2
:10091000DF91CF910895CF93DF93CDB7DEB788E312
:1009200090E028E330E0F90120812F7EFC01208354
:10093000DF91CF910895CF93DF93CDB7DEB788E3F2
:1009400090E028E330E0F90120812061FC01208360
:10095000DF91CF910895CF93DF93CDB7DEB780E5D8
:1009600090E020E530E0F90120812062FC01208345
:1009700080E590E020E530E0F90120812F7EFC0148
:10098000208380E590E020E530E0F9012081277F99
:10099000FC01208385E590E025E530E0F901208128
:1009A0002068FC012083DF91CF910895CF93DF93DE
:1009B000CDB7DEB762970FB6F894DEBF0FBECDBFDE
:1009C0009A8B898B1A82198277C080E090E0A0E828
:1009D000BFE38B839C83AD83BE8320E030E04AE796
:1009E00053E46B817C818D819E810E946906DC01CC
:1009F000CB018F839887A987BA8720E030E040E851
:100A00005FE36F81788589859A850E94C005882378
:100A10002CF481E090E09C878B873FC020E03FEF83
:100A20004FE757E46F81788589859A850E9465062E
:100A300018164CF520E030E040E251E46B817C81F7
:100A40008D819E810E946906DC01CB01BC01CD0134
:100A50000E94C405DC01CB019C878B870FC089E114
:100A600090E09E878D878D859E850197F1F79E8703
:100A70008D878B859C8501979C878B878B859C8533
:100A8000009769F714C06F81788589859A850E94DF
:100A9000C405DC01CB019C878B878B859C85988B5B
:100AA0008F878F8598890197F1F7988B8F87898138
:100AB0009A8101969A83898329813A8189899A89C1
:100AC000281739070CF481CF62960FB6F894DEBF71
:100AD0000FBECDBFDF91CF910895CF93DF931F92CB
:100AE000CDB7DEB789838BE290E0FC018081882F4F
:100AF00090E0807299270097B1F38CE290E0298111
:100B0000FC0120830F90DF91CF910895CF93DF9365
:100B1000CDB7DEB78BE290E0FC0180818823D4F76B
:100B20008CE290E0FC018081DF91CF910895CF931A
:100B3000DF9300D0CDB7DEB79A83898380E490E05D
:100B400029813A81232F3327FC01208389E290E019
:100B50002981FC0120838AE290E028E1FC012083C6
:100B600080E490E02EE8FC01208366E875E08DE6E5
:100B700095E00E94CC060F900F90DF91CF910895E1
:100B80002FD008F481E008957FD088F09F5790F02F
:100B9000B92F9927B751A0F0D1F0660F771F881FA2
:100BA000991F1AF0BA95C9F712C0B13081F086D0FA
:100BB000B1E0089583C0672F782F8827B85F39F098
:100BC000B93FCCF3869577956795B395D9F73EF401
:100BD00090958095709561957F4F8F4F9F4F0895A9
:100BE000990F0008550FAA0BE0E8FEEF161617063E
:100BF000E807F907C0F012161306E407F50798F0A6
:100C0000621B730B840B950B39F40A2661F0232BBE
:100C1000242B252B21F408950A2609F4A140A6953A
:100C20008FEF811D811D089597F99F6780E870E01F
:100C300060E008959FEF80EC089500240A94161652
:100C4000170618060906089500240A9412161306BA
:100C5000140605060895092E0394000C11F4882348
:100C600052F0BB0F40F4BF2B11F460FF04C06F5F64
:100C70007F4F8F4F9F4F089557FD9058440F551F3A
:100C800059F05F3F71F04795880F97FB991F61F00E
:100C90009F3F79F087950895121613061406551F85
:100CA000F2CF4695F1DF08C0161617061806991FF1
:100CB000F1CF86957105610508940895E894BB27E6
:100CC00066277727CB0197F908958ADF08F48FEF1D
:100CD00008950BD0C0CFB1DF28F0B6DF18F0952310
:100CE00009F0A2CFA7CF1124EACFC6DFA0F3959FCA
:100CF000D1F3950F50E0551F629FF001729FBB2703
:100D0000F00DB11D639FAA27F00DB11DAA1F649FAE
:100D10006627B00DA11D661F829F2227B00DA11D61
:100D2000621F739FB00DA11D621F839FA00D611DE7
:100D3000221F749F3327A00D611D231F849F600D08
:100D4000211D822F762F6A2F11249F5750408AF041
:100D5000E1F088234AF0EE0FFF1FBB1F661F771FCD
:100D6000881F91505040A9F79E3F510570F05CCF0D
:100D7000A6CF5F3FECF3983EDCF3869577956795B9
:100D8000B795F795E7959F5FC1F7FE2B880F911DEB
:100D90009695879597F908950F931F93CF93DF93B7
:100DA000EC018B01009731F46115710519F480E0B5
:100DB00090E038C06EE070E081E090E00E942A0987
:100DC000FC010097A1F380E883830115110571F000
:100DD0001387028781E883838091420190914301C8
:100DE000892B21F4F0934301E09342012097C9F04D
:100DF000D187C087838182608383809144019091F1
:100E00004501892B71F4F0934501E09344018091F1
:100E1000460190914701892B21F4F0934701E0931B
:100E20004601CF01DF91CF911F910F910895A0E06E
:100E3000B0E0EDE1F7E00C942A0BFE0135966191EC
:100E40007191AF0180914401909145010E94580732
:100E5000E2E00C94460B0F931F93CF93DF93E09146
:100E60004401F0914501238121FF1BC0EC0100E00A
:100E700010E089916091440170914501DB01189661
:100E8000ED91FC911997882331F00995892B89F30D
:100E90000FEF1FEFEECF8AE00995892B11F4C801FF
:100EA00002C08FEF9FEFDF91CF911F910F910895B7
:100EB000ACE0B0E0EEE5F7E00C941A0B7C016B01BE
:100EC0008A01FC0117821682838181FFBDC1CE0198
:100ED00001964C01F7019381F60193FD859193FFF3
:100EE00081916F01882309F4ABC1853239F493FDF8
:100EF000859193FF81916F01853229F4B70190E0CC
:100F00000E948A0AE7CF512C312C20E02032A0F435
:100F10008B3269F030F4803259F0833269F4206109
:100F20002CC08D3239F0803339F4216026C0226024
:100F3000246023C0286021C027FD27C030ED380F72
:100F40003A3078F426FF06C0FAE05F9E300D112497
:100F5000532E13C08AE0389E300D1124332E2062A8
:100F60000CC08E3221F426FD6BC1206406C08C3685
:100F700011F4206802C0883641F4F60193FD859192
:100F800093FF81916F018111C1CF982F9F7D95545F
:100F9000933028F40C5F1F4FFFE3F9830DC08336B5
:100FA00031F0833771F0833509F05BC022C0F8015E
:100FB000808189830E5F1F4F44244394512C540138
:100FC00015C03801F2E06F0E711CF801A080B180ED
:100FD00026FF03C0652D70E002C06FEF7FEFC501F3
:100FE0002C870E947F0A2C0183012C852F77222ECB
:100FF00017C03801F2E06F0E711CF801A080B180BB
:1010000026FF03C0652D70E002C06FEF7FEFC501C2
:101010002C870E946D0A2C012C852068222E8301CA
:1010200023FC1BC0832D90E048165906B0F4B7018D
:1010300080E290E00E948A0A3A94F4CFF50127FCFE
:10104000859127FE81915F01B70190E00E948A0A95
:1010500031103A94F1E04F1A51084114510471F7DC
:10106000E5C0843611F0893639F5F80127FF07C04D
:1010700060817181828193810C5F1F4F08C0608104
:101080007181882777FD8095982F0E5F1F4F2F76EF
:10109000B22E97FF09C090958095709561957F4F0E
:1010A0008F4F9F4F2068B22E2AE030E0A4010E94AB
:1010B000BC0AA82EA81844C0853729F42F7EB22E6A
:1010C0002AE030E025C0F22FF97FBF2E8F36C1F025
:1010D00018F4883579F0B4C0803719F0883721F0DA
:1010E000AFC02F2F2061B22EB4FE0DC08B2D8460B7
:1010F000B82E09C024FF0AC09F2F9660B92E06C0E3
:1011000028E030E005C020E130E002C020E132E01C
:10111000F801B7FE07C060817181828193810C5F05
:101120001F4F06C06081718180E090E00E5F1F4F0D
:10113000A4010E94BC0AA82EA818FB2DFF77BF2E81
:10114000B6FE0BC02B2D2E7FA51450F4B4FE0AC0A2
:10115000B2FC08C02B2D2E7E05C07A2C2B2D03C08F
:101160007A2C01C0752C24FF0DC0FE01EA0DF11D83
:101170008081803311F4297E09C022FF06C0739458
:10118000739404C0822F867809F0739423FD13C0F2
:1011900020FF06C05A2C731418F4530C5718732CE4
:1011A000731468F4B70180E290E02C870E948A0AE9
:1011B00073942C85F5CF731410F4371801C0312CBB
:1011C00024FF12C0B70180E390E02C870E948A0AB6
:1011D0002C8522FF17C021FF03C088E590E002C0E4
:1011E00088E790E0B7010CC0822F867859F021FD86
:1011F00002C080E201C08BE227FD8DE2B70190E0E2
:101200000E948A0AA51438F4B70180E390E00E9496
:101210008A0A5A94F7CFAA94F401EA0DF11D80814D
:10122000B70190E00E948A0AA110F5CF332009F49B
:1012300051CEB70180E290E00E948A0A3A94F6CF3C
:10124000F7018681978102C08FEF9FEF2C96E2E134
:101250000C94360B0F931F93CF93DF93869F8001DF
:10126000879F100D969F100D1124C8010E944609FA
:10127000EC01009729F0A80160E070E00E94780A74
:10128000CE01DF91CF911F910F910895CF93DF93FE
:101290008230910510F482E090E0E0914A01F091F3
:1012A0004B0120E030E0A0E0B0E0309739F1408120
:1012B000518148175907B8F04817590771F48281CE
:1012C0009381109729F013969C938E9312972CC0BC
:1012D00090934B0180934A0127C02115310531F0CD
:1012E0004217530718F0A901DB0101C0EF019A0171
:1012F000BD01DF010280F381E02DD7CF211531053B
:10130000F9F0281B390B2430310580F48A819B8148
:101310006115710521F0FB019383828304C09093D2
:101320004B0180934A01FE01329644C0FE01E20F58
:10133000F31F8193919322503109398328833AC056
:101340002091480130914901232B41F42091020161
:10135000309103013093490120934801209100010D
:10136000309101012115310541F42DB73EB740916F
:10137000040150910501241B350BE0914801F091C7
:101380004901E217F307A0F42E1B3F0B281739077A
:1013900078F0AC014E5F5F4F2417350748F04E0FD1
:1013A0005F1F50934901409348018193919302C07C
:1013B000E0E0F0E0CF01DF91CF910895CF93DF938C
:1013C000009709F487C0FC01329713821282C09102
:1013D0004A01D0914B01209781F420813181280F5F
:1013E000391F80914801909149018217930779F53F
:1013F000F0934901E09348016DC0DE0120E030E048
:10140000AE17BF0750F412964D915C9113979D0152
:101410004115510509F1DA01F3CFB383A28340816D
:101420005181840F951F8A179B0771F48D919C91B0
:101430001197840F951F02969183808312968D9148
:101440009C911397938382832115310529F4F0939E
:101450004B01E0934A013EC0D9011396FC93EE93F1
:1014600012974D915D91A40FB51FEA17FB0779F410
:1014700080819181840F951F0296D90111969C93CA
:101480008E938281938113969C938E931297E0E0C2
:10149000F0E08A819B81009719F0FE01EC01F9CF01
:1014A000CE01029628813981820F931F2091480135
:1014B000309149012817390769F4309729F41092BF
:1014C0004B0110924A0102C013821282D09349014B
:1014D000C0934801DF91CF910895FC0105906150C0
:1014E00070400110D8F7809590958E0F9F1F08953A
:1014F000DC0101C06D9341505040E0F70895FC01BC
:101500006150704001900110D8F7809590958E0F32
:101510009F1F08950F931F93CF93DF93182F092FC9
:10152000EB018B8181FD03C08FEF9FEF20C082FF15
:1015300010C04E815F812C813D81421753077CF49E
:10154000E881F9819F012F5F3F4F39832883108302
:1015500006C0E885F985812F0995892B29F72E8109
:101560003F812F5F3F4F3F832E83812F902FDF914D
:10157000CF911F910F910895FA01AA27283051F1B8
:10158000203181F1E8946F936E7F6E5F7F4F8F4FB4
:101590009F4FAF4FB1E03ED0B4E03CD0670F781F13
:1015A000891F9A1FA11D680F791F8A1F911DA11DF8
:1015B0006A0F711D811D911DA11D20D009F4689431
:1015C0003F912AE0269F11243019305D3193DEF6D9
:1015D000CF010895462F4770405D4193B3E00FD08F
:1015E000C9F7F6CF462F4F70405D4A3318F0495D7A
:1015F00031FD4052419302D0A9F7EACFB4E0A6955D
:101600009795879577956795BA95C9F7009761057E
:10161000710508959B01AC010A2E069457954795D4
:1016200037952795BA95C9F7620F731F841F951FC9
:10163000A01D08952F923F924F925F926F927F92DA
:101640008F929F92AF92BF92CF92DF92EF92FF92D2
:101650000F931F93CF93DF93CDB7DEB7CA1BDB0B7E
:101660000FB6F894DEBF0FBECDBF09942A88398823
:1016700048885F846E847D848C849B84AA84B9842A
:10168000C884DF80EE80FD800C811B81AA81B98136
:10169000CE0FD11D0FB6F894DEBF0FBECDBFED014A
:0616A0000895F894FFCF4D
:1016A60000004C0120000A0A5374617274757020A0
:1016B600636F6D706C6574650A00446174613A000D
:1016C600202569000A4C656E6774683A20256920F2
:0E16D60020202049443A2025690A200A0000FD
:00000001FF
