:100000000C9438000C9455000C94AF000C943A02F8
:100010000C9455000C9455000C9455000C9455000C
:100020000C9455000C9455000C9455000C945500FC
:100030000C9455000C9455000C9455000C945500EC
:100040000C9455000C9455000C9455000C945500DC
:100050000C9455000C9455000C9455000C945500CC
:100060000C9455000C9455000C9455000C945500BC
:1000700011241FBECFEFD4E0DEBFCDBF12E0A0E061
:10008000B1E0E4EDF6E102C005900D92A436B107AF
:10009000D9F722E0A4E6B2E001C01D92A237B20770
:1000A000E1F70E9421020C94680B0C940000CF939E
:1000B000DF93CDB7DEB70E94200140E050E060EF53
:1000C00070E08FE090E00E9401014FE950E06FE99D
:1000D00070E08BE290E00E940101DF91CF910895E2
:1000E000EF92FF920F931F93CF93DF93CDB7DEB7BD
:1000F000C45ED1090FB6F894DEBF0FBECDBF198222
:1001000081E08A8381E08B831C821D82CE01089668
:100110009F838E83DE01AF58BF4FFE01E25BFF4F2E
:100120009E0129543F4FAE014C565F4FBE01655DA5
:100130007F4FCE0108967D018F010E9451020E94DF
:10014000F404CC51DF4F0FB6F894DEBF0FBECDBF25
:10015000DF91CF911F910F91FF90EF9008951F9223
:100160000F9200905F000F9211242F933F934F93B3
:100170005F936F937F938F939F93AF93BF93EF930F
:10018000FF93CF93DF93CDB7DEB78CE290E00E9470
:10019000E7008093640240E050E06FEF70E08CE293
:1001A00090E00E940101DF91CF91FF91EF91BF910B
:1001B000AF919F918F917F916F915F914F913F91FF
:1001C0002F910F9000925F000F901F901895CF9382
:1001D000DF9300D0CDB7DEB78A830E94A90483E005
:1001E0000E9489048A810E94890480E00E94890417
:1001F00089830E94B90489810F900F90DF91CF917C
:100200000895CF93DF9300D01F92CDB7DEB78983D7
:100210006A834B830E94A90485E00E948904898136
:100220000E9489048A810E9489048B810E9489042A
:100230000E94B9040F900F900F90DF91CF91089515
:10024000CF93DF93CDB7DEB70E94A90480EC0E9464
:1002500089040E94B904DF91CF910895CF93DF9371
:1002600000D01F92CDB7DEB78B8380E090E19A83F8
:10027000898389819A812B81FC0120830F900F90C3
:100280000F90DF91CF910895CF93DF9300D01F920D
:10029000CDB7DEB78B8380E092E19A838983898131
:1002A0009A812B81FC0120830F900F900F90DF919A
:1002B000CF910895CF93DF931F92CDB7DEB7198208
:1002C00006C089810E94A30189818F5F898389810A
:1002D0008830B8F30E9470010F90DF91CF9108959C
:1002E000CF93DF93CDB7DEB760E080E00E94BC0122
:1002F000DF91CF910895CF93DF931F92CDB7DEB7F3
:100300008983898180936602898180550E942E01AC
:100310000F90DF91CF910895CF93DF931F92CDB7C8
:10032000DEB7898389818093650289818F700E94FD
:100330002E01898182958F70805F0E942E010F901F
:10034000DF91CF910895CF93DF9300D0CDB7DEB783
:100350008A838A810E947B01198206C080E00E9404
:10036000440189818F5F898389818823BCF70F903D
:100370000F90DF91CF910895CF93DF9300D0CDB749
:10038000DEB789836A838A8180936502898180933D
:10039000660289810E947B018A810E948C010F90F4
:1003A0000F90DF91CF910895CF93DF93CDB7DEB754
:1003B0008EEA0E942E0181EA0E942E018AED0E949F
:1003C0002E0182E10E942E0188EC0E942E0188EA13
:1003D0000E942E018FE30E942E0185ED0E942E01C6
:1003E00080E80E942E0181E80E942E0180E50E9493
:1003F0002E0189ED0E942E0181E20E942E0180E2F1
:100400000E942E0182E00E942E018BED0E942E019F
:1004100080E30E942E018DEA0E942E0180E00E945E
:100420002E0184EA0E942E0186EA0E942E018FEAA4
:100430000E942E010E9470010E945A01DF91CF910B
:100440000895CF93DF93CDB7DEB78FE190E00E94A0
:10045000F9050E94C9040E94D4010E94F6030E947B
:1004600093030E9431040E9457000E9418040E94C6
:100470007000FDCF1F920F9200905F000F92112429
:100480008F93CF93DF93CDB7DEB781E08093670280
:10049000DF91CF918F910F9000925F000F901F908E
:1004A0001895EF92FF920F931F93CF93DF93CDB7E1
:1004B000DEB72C970FB6F894DEBF0FBECDBF9A8380
:1004C00089837C836B835E834D8338872F831A8770
:1004D0000987FC86EB8689819A8122E0FC0120A3B2
:1004E00089819A8122E0FC0121A389819A812AE0F5
:1004F00031E0FC013183208389819A8125E131E05B
:10050000FC01338322838B819C8123E0FC0120A3A7
:100510008B819C8123E0FC0121A38B819C812AE1BA
:1005200031E0FC01318320838B819C8121E231E029
:10053000FC01338322838B819C8125E131E0FC0126
:100540003583248389819A812B813C81FC01318B05
:10055000208B8B819C812D813E81FC01318B208BF6
:100560008B819C812F813885FC01338B228B8B8181
:100570009C8129813A81FC01358B248B8D819E8160
:1005800026E0FC0120A38D819E8122E0FC0121A3B5
:100590008D819E812AE031E0FC01318320838D81B1
:1005A0009E8125E131E0FC01338322838D819E8190
:1005B00028E231E0FC01358324838D819E812AE28B
:1005C00031E0FC01378326838D819E8129E331E070
:1005D000FC01318720878D819E8126E431E0FC017A
:1005E000338722878D819E812D813E81FC01358B51
:1005F000248B8D819E812D813E81FC01378B268B42
:100600008D819E812D813E81FC01318F208F8D81D6
:100610009E8129853A85FC01318B208B8D819E81BD
:100620002B813C81FC01338B228B8F81988526E0C6
:10063000FC0120A38F81988522E0FC0121A38F81FA
:1006400098852AE031E0FC01318320838F819885F1
:1006500025E131E0FC01338322838F81988528E2F4
:1006600031E0FC01358324838F8198852AE231E0D3
:10067000FC01378326838F81988525E531E0FC01D5
:10068000318720878F81988522E631E0FC0133870E
:1006900022878F8198852F813885FC01358B248BAB
:1006A0008F8198852F813885FC01378B268B8F8130
:1006B00098852F813885FC01318F208F8F81988517
:1006C0002B853C85FC01318B208B8F8198852B817C
:1006D0003C81FC01338B228B89819A81FC0112A21F
:1006E0008B819C81FC0112A28D819E81FC0112A252
:1006F0008F819885FC0112A289859A8523E0FC01EF
:1007000022A38B859C8524E0FC0122A32C960FB6A6
:10071000F894DEBF0FBECDBFDF91CF911F910F9137
:10072000FF90EF900895CF93DF93CDB7DEB7F894A5
:100730008BE590E02BE530E0F90120812F7DFC0175
:10074000208386E590E026E530E0F90120812E7FC8
:10075000FC0120838AE590E02AE530E0F901208160
:100760002F7DFC01208385E590E025E530E0F9014F
:1007700020812860FC01208385E590E025E530E0BC
:10078000F90120812B7FFC0120838AE590E02AE596
:1007900030E0F90120812F77FC01208385E590E08E
:1007A00025E530E0F90120812160FC01208385E509
:1007B00090E025E530E0F90120812260FC012083F2
:1007C0008BE590E02BE530E0F90120812062FC010F
:1007D00020838BE590E02BE530E0F9012081206853
:1007E000FC0120837894DF91CF910895CF93DF931C
:1007F000CDB7DEB786E290E026E230E0F901208155
:100800002E7FFC01208387E290E027E230E0F901AF
:1008100020812160FC01208381E390E021E330E02E
:10082000F90120812B7FFC012083DF91CF91089576
:10083000CF93DF93CDB7DEB781E390E021E330E0E3
:10084000F90120812061FC01208382E390E022E312
:1008500030E0F90120812061FC012083DF91CF91FC
:100860000895CF93DF93CDB7DEB787E390E027E31A
:1008700030E0F90120812061FC01208387E390E0D2
:1008800027E330E0F90120812062FC01208387E327
:1008900090E027E330E0F90120812F7BFC012083E9
:1008A00088E390E028E330E0F90120812064FC0136
:1008B000208387E390E027E330E0F901208120687E
:1008C000FC0120838DE290E02DE230E0F9012081EF
:1008D0002064FC0120838DE290E02DE230E0F901FC
:1008E00020812160FC01208388E390E028E330E050
:1008F000F90120812061FC0120838DE290E02DE24E
:1009000030E0F90120812061FC012083DF91CF914B
:100910000895CF93DF931F92CDB7DEB789838FE21F
:1009200090E02981FC01208300008EE290E0FC0130
:100930008081881F8827881F882F90E0992700973B
:10094000A1F38FE290E0FC0180810F90DF91CF91C5
:100950000895CF93DF93CDB7DEB788E390E028E327
:1009600030E0F90120812F7EFC012083DF91CF91BF
:100970000895CF93DF93CDB7DEB788E390E028E307
:1009800030E0F90120812061FC012083DF91CF91CB
:100990000895CF93DF93CDB7DEB780E590E020E5F3
:1009A00030E0F90120812062FC01208380E590E0A5
:1009B00020E530E0F90120812F7EFC01208380E5D5
:1009C00090E020E530E0F9012081277FFC012083C1
:1009D00085E590E025E530E0F90120812068FC0103
:1009E0002083DF91CF910895CF93DF93CDB7DEB70A
:1009F00062970FB6F894DEBF0FBECDBF80E098E1DE
:100A00009A87898780E098E09C878B871A82198271
:100A10001C821B828EE691E00E9411070E947006E4
:100A20009E878D878D859E850E9475061E821D82FC
:100A300044C00E9470068F8729853A858D819E81EA
:100A4000820F931F2F85FC01208329853A858D8194
:100A50009E81820F931FFC018081888B98898F85EE
:100A6000981731F18F85282F30E08889882F90E002
:100A7000432F4F932F93292F2F938F938E818F93F3
:100A80008D818F9384E891E0892F8F9384E891E0A2
:100A90008F930E94FD068DB79EB708960FB6F89407
:100AA000DEBF0FBECDBF89819A8101969A8389836B
:100AB0008D819E8101969E838D832D813E818B85C4
:100AC0009C852817390708F4B4CF8D859E850E9430
:100AD000750618861F823BC00E947006898B298587
:100AE0003A858F819885820F931FFC0180818A8BC4
:100AF0009A898989981731F18989282F30E08A8964
:100B0000882F90E0432F4F932F93292F2F938F936C
:100B100088858F938F818F938DEB91E0892F8F93B1
:100B20008DEB91E08F930E94FD068DB79EB70896DE
:100B30000FB6F894DEBF0FBECDBF8B819C810196AE
:100B40009C838B838F819885019698878F832F81D3
:100B500038858B859C852817390708F4BDCF8C8193
:100B60008F938B818F938A818F9389818F938AEF63
:100B700091E0892F8F938AEF91E08F930E94FD0679
:100B80000F900F900F900F900F900F9062960FB6EE
:100B9000F894DEBF0FBECDBFDF91CF910895CF9304
:100BA000DF931F92CDB7DEB789838BE290E0FC0123
:100BB0008081882F90E0807299270097B1F38CE2B2
:100BC00090E02981FC0120830F90DF91CF9108955F
:100BD000CF93DF93CDB7DEB78BE290E0FC0180814D
:100BE0008823D4F78CE290E0FC018081DF91CF91E3
:100BF0000895CF93DF9300D0CDB7DEB79A83898372
:100C000080E490E029813A81232F3327FC0120835F
:100C100089E290E02981FC0120838AE290E028E1CA
:100C2000FC01208380E490E02EE8FC01208368EE44
:100C300075E08FEC95E00E9480060F900F90DF9199
:100C4000CF9108958F929F92AF92BF92CF92DF92F1
:100C5000EF92FF92CF93DF93EC01688179818A81D3
:100C60009B81611571058105910521F464E279ED9F
:100C70008BE597E02DE133EF41E050E00E94CE0A92
:100C800049015A019B01AC01A7EAB1E40E94ED0AB7
:100C90006B017C01ACEEB4EFA50194010E94FB0A4C
:100CA000C60ED71EE81EF91EF7FE06C081E0C81A60
:100CB000D108E10880E8F80AC882D982EA82FB827A
:100CC000C6019F77DF91CF91FF90EF90DF90CF909B
:100CD000BF90AF909F908F9008950E942206089534
:100CE00080E091E00E9422060895A0E0B0E08093A9
:100CF000000190930101A0930201B09303010895B4
:100D00000F931F93CF93DF93EC018B01009731F486
:100D10006115710519F480E090E038C06EE070E074
:100D200081E090E00E941009FC010097A1F380E8A7
:100D300083830115110571F01387028781E883838E
:100D40008091680290916902892B21F4F0936902E5
:100D5000E09368022097C9F0D187C08783818260C1
:100D6000838380916A0290916B02892B71F4F093D6
:100D70006B02E0936A0280916C0290916D02892B64
:100D800021F4F0936D02E0936C02CF01DF91CF91DB
:100D90001F910F9108950F931F93CF93DF93182FF7
:100DA000092FEB018B8181FD03C08FEF9FEF20C0E6
:100DB00082FF10C04E815F812C813D814217530715
:100DC0007CF4E881F9819F012F5F3F4F39832883AD
:100DD000108306C0E885F985812F0995892B29F7AD
:100DE0002E813F812F5F3F4F3F832E83812F902F96
:100DF000DF91CF911F910F910895A0E0B0E0E3E063
:100E0000F7E00C94100BFE01359661917191AF01E2
:100E100080916A0290916B020E943E07E2E00C947E
:100E20002C0B0F931F93CF93DF93E0916A02F09105
:100E30006B02238121FF1BC0EC0100E010E08991CF
:100E400060916A0270916B02DB011896ED91FC9142
:100E50001997882331F00995892B89F30FEF1FEF3C
:100E6000EECF8AE00995892B11F4C80102C08FEFFB
:100E70009FEFDF91CF911F910F910895ACE0B0E00B
:100E8000E4E4F7E00C94000B7C016B018A01FC01A7
:100E900017821682838181FFBDC1CE0101964C016C
:100EA000F7019381F60193FD859193FF81916F0185
:100EB000882309F4ABC1853239F493FD859193FF02
:100EC00081916F01853229F4B70190E00E94CB0631
:100ED000E7CF512C312C20E02032A0F48B3269F086
:100EE00030F4803259F0833269F420612CC08D32A5
:100EF00039F0803339F4216026C02260246023C099
:100F0000286021C027FD27C030ED380F3A3078F433
:100F100026FF06C0FAE05F9E300D1124532E13C049
:100F20008AE0389E300D1124332E20620CC08E32A0
:100F300021F426FD6BC1206406C08C3611F42068B4
:100F400002C0883641F4F60193FD859193FF8191AB
:100F50006F018111C1CF982F9F7D9554933028F454
:100F60000C5F1F4FFFE3F9830DC0833631F08337E9
:100F700071F0833509F05BC022C0F801808189835C
:100F80000E5F1F4F44244394512C540115C0380167
:100F9000F2E06F0E711CF801A080B18026FF03C043
:100FA000652D70E002C06FEF7FEFC5012C870E94B6
:100FB000650A2C0183012C852F77222E17C038015A
:100FC000F2E06F0E711CF801A080B18026FF03C013
:100FD000652D70E002C06FEF7FEFC5012C870E9486
:100FE000530A2C012C852068222E830123FC1BC070
:100FF000832D90E048165906B0F4B70180E290E0E6
:101000000E94CB063A94F4CFF50127FC859127FE88
:1010100081915F01B70190E00E94CB0631103A94B4
:10102000F1E04F1A51084114510471F7E5C08436BC
:1010300011F0893639F5F80127FF07C06081718109
:10104000828193810C5F1F4F08C060817181882766
:1010500077FD8095982F0E5F1F4F2F76B22E97FF4A
:1010600009C090958095709561957F4F8F4F9F4FE8
:101070002068B22E2AE030E0A4010E94700AA82E57
:10108000A81844C0853729F42F7EB22E2AE030E01C
:1010900025C0F22FF97FBF2E8F36C1F018F48835A6
:1010A00079F0B4C0803719F0883721F0AFC02F2F06
:1010B0002061B22EB4FE0DC08B2D8460B82E09C005
:1010C00024FF0AC09F2F9660B92E06C028E030E0AA
:1010D00005C020E130E002C020E132E0F801B7FEB7
:1010E00007C060817181828193810C5F1F4F06C0B0
:1010F0006081718180E090E00E5F1F4FA4010E942B
:10110000700AA82EA818FB2DFF77BF2EB6FE0BC0C5
:101110002B2D2E7FA51450F4B4FE0AC0B2FC08C0DB
:101120002B2D2E7E05C07A2C2B2D03C07A2C01C0CE
:10113000752C24FF0DC0FE01EA0DF11D8081803366
:1011400011F4297E09C022FF06C07394739404C071
:10115000822F867809F0739423FD13C020FF06C008
:101160005A2C731418F4530C5718732C731468F416
:10117000B70180E290E02C870E94CB0673942C8507
:10118000F5CF731410F4371801C0312C24FF12C0AE
:10119000B70180E390E02C870E94CB062C8522FFCC
:1011A00017C021FF03C088E590E002C088E790E007
:1011B000B7010CC0822F867859F021FD02C080E271
:1011C00001C08BE227FD8DE2B70190E00E94CB06C3
:1011D000A51438F4B70180E390E00E94CB065A943E
:1011E000F7CFAA94F401EA0DF11D8081B70190E0D8
:1011F0000E94CB06A110F5CF332009F451CEB701E0
:1012000080E290E00E94CB063A94F6CFF701868107
:10121000978102C08FEF9FEF2C96E2E10C941C0B9C
:101220000F931F93CF93DF93869F8001879F100DAD
:10123000969F100D1124C8010E942C09EC01009703
:1012400029F0A80160E070E00E945E0ACE01DF9103
:10125000CF911F910F910895CF93DF938230910525
:1012600010F482E090E0E0917002F091710220E0D1
:1012700030E0A0E0B0E0309739F14081518148176B
:101280005907B8F04817590771F482819381109774
:1012900029F013969C938E9312972CC09093710211
:1012A0008093700227C02115310531F04217530792
:1012B00018F0A901DB0101C0EF019A01BD01DF01B6
:1012C0000280F381E02DD7CF21153105F9F0281BDD
:1012D000390B2430310580F48A819B8161157105B9
:1012E00021F0FB019383828304C090937102809369
:1012F0007002FE01329644C0FE01E20FF31F81939B
:10130000919322503109398328833AC020916E028B
:1013100030916F02232B41F4209106013091070197
:1013200030936F0220936E022091040130910501E9
:101330002115310541F42DB73EB740910801509178
:101340000901241B350BE0916E02F0916F02E21748
:10135000F307A0F42E1B3F0B2817390778F0AC01D8
:101360004E5F5F4F2417350748F04E0F5F1F5093B5
:101370006F0240936E028193919302C0E0E0F0E02F
:10138000CF01DF91CF910895CF93DF93009709F4B8
:1013900087C0FC01329713821282C0917002D091F3
:1013A0007102209781F420813181280F391F8091AB
:1013B0006E0290916F028217930779F5F0936F0296
:1013C000E0936E026DC0DE0120E030E0AE17BF0793
:1013D00050F412964D915C9113979D014115510562
:1013E00009F1DA01F3CFB383A28340815181840FE5
:1013F000951F8A179B0771F48D919C911197840F0B
:10140000951F02969183808312968D919C911397DC
:10141000938382832115310529F4F0937102E093BF
:1014200070023EC0D9011396FC93EE9312974D9132
:101430005D91A40FB51FEA17FB0779F480819181B4
:10144000840F951F0296D90111969C938E938281E9
:10145000938113969C938E931297E0E0F0E08A813B
:101460009B81009719F0FE01EC01F9CFCE010296A5
:1014700028813981820F931F20916E0230916F0273
:101480002817390769F4309729F4109271021092E5
:10149000700202C013821282D0936F02C0936E0258
:1014A000DF91CF910895FC010590615070400110CB
:1014B000D8F7809590958E0F9F1F0895DC0101C08D
:1014C0006D9341505040E0F70895FC016150704029
:1014D00001900110D8F7809590958E0F9F1F089569
:1014E000FA01AA27283051F1203181F1E8946F9355
:1014F0006E7F6E5F7F4F8F4F9F4FAF4FB1E03ED0FB
:10150000B4E03CD0670F781F891F9A1FA11D680F98
:10151000791F8A1F911DA11D6A0F711D811D911DCB
:10152000A11D20D009F468943F912AE0269F112440
:101530003019305D3193DEF6CF010895462F4770A4
:10154000405D4193B3E00FD0C9F7F6CF462F4F70FF
:10155000405D4A3318F0495D31FD4052419302D05D
:10156000A9F7EACFB4E0A695979587957795679503
:10157000BA95C9F700976105710508959B01AC0103
:101580000A2E06945795479537952795BA95C9F72A
:10159000620F731F841F951FA01D0895052E97FBD2
:1015A0001EF400940E94E50A57FD07D00E94370BF5
:1015B00007FC03D04EF40C94E50A50954095309505
:1015C00021953F4F4F4F5F4F0895909580957095AF
:1015D00061957F4F8F4F9F4F08950E94590BA59F94
:1015E000900DB49F900DA49F800D911D112408951E
:1015F000B7FF0C94ED0A0E94ED0A821B930B08952D
:101600002F923F924F925F926F927F928F929F9212
:10161000AF92BF92CF92DF92EF92FF920F931F9300
:10162000CF93DF93CDB7DEB7CA1BDB0B0FB6F894B1
:10163000DEBF0FBECDBF09942A88398848885F84F1
:101640006E847D848C849B84AA84B984C884DF8062
:10165000EE80FD800C811B81AA81B981CE0FD11D46
:101660000FB6F894DEBF0FBECDBFED010895A1E225
:101670001A2EAA1BBB1BFD010DC0AA1FBB1FEE1F0C
:10168000FF1FA217B307E407F50720F0A21BB30B57
:10169000E40BF50B661F771F881F991F1A9469F7D3
:1016A00060957095809590959B01AC01BD01CF012F
:1016B0000895A29FB001B39FC001A39F700D811D2B
:1016C0001124911DB29F700D811D1124911D08954B
:0416D000F894FFCFBC
:1016D40001000000000072022000506C6179206754
:1016E400616D65210045786974004D6F6465203132
:1016F400004D6F6465203200200041626F75743ABA
:1017040020436F6E74726F6C0074686520706F7321
:101714006974696F6E006F66207468652073686F02
:101724006F74657200746865207370656564206FFA
:1017340066007468652073686F6F74657200537413
:10174400617274696E67205352414D2074657374DD
:101754002E2E2E005772697465207068617365209F
:101764006572726F723A206578745F72616D5B2581
:1017740034645D203D2025303258202873686F750D
:101784006C642062652025303258290A0052657441
:1017940072696576616C2070686173652065727228
:1017A4006F723A206578745F72616D5B2534645D95
:1017B400203D2025303258202873686F756C6420D2
:1017C40062652025303258290A005352414D207455
:1017D40065737420636F6D706C65746564207769DC
:1017E4007468200A253464206572726F72732069EC
:1017F4006E20777269746520706861736520616E0C
:1018040064200A253464206572726F727320696ED5
:101814002072657472696576616C207068617365A5
:101824000A0A0056616C7565207761733A20256950
:04183400200A000086
:00000001FF
