:10000000C2C00000E0C00000DEC000009DC20000D1
:10001000DAC00000D8C00000D6C00000D4C0000084
:10002000D2C00000D0C00000CEC00000CCC0000094
:10003000CAC00000C8C00000C6C00000C4C00000A4
:10004000C2C00000C0C00000BEC00000BCC00000B4
:10005000BAC00000B8C00000B6C00000B4C00000C4
:10006000B2C00000B0C00000AEC00000ACC00000D4
:10007000AAC00000A8C00000A6C00000A4C00000E4
:100080009BC20000A0C000009EC000009CC00000F9
:100090009AC0000098C0000096C000000C94900F19
:1000A00092C0000090C000008EC000008CC0000014
:1000B0008AC0000088C0000086C0000084C0000024
:1000C00082C0000080C000007EC000007CC0000034
:1000D0007AC0000078C0000076C0000074C0000044
:1000E00072C00000BF0F2D102D102D102D102D10DF
:1000F0002D102D10BF0F2D102D102D102D102D1087
:100100002D102D10C10F2D102D102D102D102D1074
:100110002D102D102D102D102D102D102D102D10F7
:100120002D102D10C10F2D102D102D102D102D1054
:100130002D102D102D102D102D102D102D102D10D7
:100140002D102D1027102D102D102D102D102D10CD
:100150002D102D10F80F2D102D102D102D102D10ED
:100160002D102D102D102D102D102D102D102D10A7
:100170002D102D10E80F2D102D102D102D102D10DD
:100180002D102D10101011241FBECFEFD1E2DEBFB5
:10019000CDBF00E00CBF12E0A0E0B2E0E4EBFFE274
:1001A00000E00BBF02C007900D92AC30B107D9F749
:1001B00022E0ACE0B2E001C01D92AC32B207E1F740
:1001C00020D10C94D8171CCFCF93DF93CDB7DEB7D7
:1001D0008AE790E02AE730E0F90120812068FC01FD
:1001E000208380E390E020E330E0F90120812E7F3E
:1001F000FC0120838CE790E02CE730E0F9012081BE
:100200002064FC0120838CE790E02CE730E0F901CA
:1002100020812F77FC0120838CE790E02CE730E0F1
:10022000F90120812E7FFC0120838CE790E02CE7F0
:1002300030E0F90120812D7FFC0120838CE790E0E4
:100240002CE730E0F90120812B7FFC0120838CE733
:1002500090E02CE730E0F9012081277FFC0120832A
:100260008CE790E02CE730E0F90120812F7EFC0143
:1002700020838BE790E02BE730E0F9012081277F96
:10028000FC0120838AE790E02AE730E0F901208131
:100290002160FC0120838AE790E02AE730E0F90141
:1002A00020812260FC0120838AE790E02AE730E089
:1002B000F90120812460FC0120838CE790E02CE789
:1002C00030E0F90120812F7DFC012083DF91CF9167
:1002D0000895CF93DF93CDB7DEB7F894B9D140E05E
:1002E00060EF8FE041D24FE96FE98BE23DD28DE3C1
:1002F00090E02DE330E0F90120812B7FFC01208389
:1003000089E690E029E630E0F90120812F7DFC01AB
:10031000208389E690E029E630E0F90120812F7EF4
:10032000FC0120838DE390E02DE330E0F901208192
:100330002460FC0120837894DF91CF9108950F937E
:100340001F93CF93DF93CDB7DEB728970FB6F894FE
:10035000DEBF0FBECDBF8E8378876F838E818150C5
:100360005CD1282F2F708F819885FC012283198200
:1003700012C08981082F10E09E818981890F4DD19B
:10038000282F8F819885800F911F0396FC01208371
:1003900089818F5F89838F819885FC019281898112
:1003A000891738F38E81845038D18295869587706D
:1003B000882F90E0877099279B838A838E81855050
:1003C0002CD1882F90E0880F991F880F991F880FD4
:1003D000991F9D838C832A813B818C819D81280F6D
:1003E000391F8F819885FC013183208328960FB6B1
:1003F000F894DEBF0FBECDBFDF91CF911F910F915B
:100400000895CF93DF93CDB7DEB72E970FB6F8944C
:10041000DEBF0FBECDBF1B8281E089831A8287E6D3
:1004200090E00E9477100E944A0D53DF0E94E40D75
:10043000CBDE0E94230FB6D10E94A00C8A81882FA8
:1004400090E08130910581F1823091051CF4009794
:1004500051F079C08230910509F453C08330910581
:1004600009F470C070C080910C028823E1F0CE01C5
:100470000496BC0186E663DF8A85882319F082E052
:100480008A830EC08A85882359F481E08A8317D72E
:1004900007D460E070E088E492E496D30E944C0EAA
:1004A00010920C0250C04FC080910C02882341F181
:1004B000CE010496BC0186E642DF8F81882F90E052
:1004C000A0E0B0E0BC01CD010E94A211DC01CB0193
:1004D000BC01CD0179D38F8160E00E94A20E898595
:1004E000882339F08981882321F40E94B90C81E0A6
:1004F00089838985882309F4198210920C0223C00C
:1005000022C080910C028823E1F0CE010496BC0148
:1005100086E615DF8F8171D18F8160E00E94A20E87
:100520008985882339F08981882321F40E94B90CB8
:1005300081E089838985882309F4198210920C024D
:1005400002C001C000007ACF1F920F9200905F009E
:100550000F92112400905B000F922F933F934F93C3
:100560005F936F937F938F939F93AF93BF93EF931B
:10057000FF93CF93DF93CDB7DEB78CE24ED080935D
:100580000C0240E06FEF8CE2EFD0DF91CF91FF9152
:10059000EF91BF91AF919F918F917F916F915F91FB
:1005A0004F913F912F910F9000925B000F9000921E
:1005B0005F000F901F9018951F920F9200905F00A0
:1005C0000F92112400905B000F922F933F934F9353
:1005D0005F936F937F938F939F93AF93BF93EF93AB
:1005E000FF93CF93DF93CDB7DEB768D1DF91CF9183
:1005F000FF91EF91BF91AF919F918F917F916F91FB
:100600005F914F913F912F910F9000925B000F905F
:1006100000925F000F901F901895CF93DF931F9269
:100620001F92CDB7DEB78A830E94C40D83E00E947B
:10063000AB0D8A810E94AB0D80E00E94AB0D8983D7
:100640000E94D40D89810F900F90DF91CF91089572
:10065000CF93DF93CDB7DEB72E970FB6F894DEBFFA
:100660000FBECDBF0E94C40D80EC0E94AB0D0E9456
:10067000D40D80E090E0A0E8BFE389839A83AB8348
:10068000BC8320E030E04AE753E469817A818B81C2
:100690009C810E94AB12DC01CB018D839E83AF83D2
:1006A000B88720E030E040E85FE36D817E818F8194
:1006B00098850E94051188232CF481E090E09A87A8
:1006C00089873FC020E03FEF4FE757E46D817E818F
:1006D0008F8198850E94A71218164CF520E030E013
:1006E00040E251E469817A818B819C810E94AB1246
:1006F000DC01CB01BC01CD010E947611DC01CB01F4
:100700009A8789870FC089E190E09C878B878B85CA
:100710009C850197F1F79C878B8789859A8501973E
:100720009A87898789859A85009769F714C06D81B2
:100730007E818F8198850E947611DC01CB019A879A
:10074000898789859A859E878D878D859E85019766
:10075000F1F79E878D872E960FB6F894DEBF0FBEF9
:10076000CDBFDF91CF910895CF93DF9300D0CDB768
:10077000DEB789836A834B830E94C40D85E00E94A3
:10078000AB0D89810E94AB0D8A810E94AB0D8B81DC
:100790000E94AB0D0E94D40D0F900F900F90DF912F
:1007A000CF910895CF93DF93CDB7DEB781E091E08D
:1007B00021E031E0F90120812061FC01208381E00A
:1007C00091E021E031E0F90120812260FC012083E9
:1007D00082E091E022E031E0F90120812061FC011A
:1007E000208382E091E022E031E0F90120812D7F39
:1007F000FC012083DF91CF910895CF93DF93CDB794
:10080000DEB728970FB6F894DEBF0FBECDBF8C833E
:100810008EE589831A821B828C818533F0F082E019
:1008200091E022E031E0F90120812260FC01208387
:100830008C81882F90E09C01225331094FEF429F19
:10084000C001439F900D112424E630E0B9010E94BD
:100850001D13CB01865F8B8323C08C818033F8F41A
:1008600082E091E022E031E0F90120812D7FFC015E
:1008700020838C81882F90E022E330E0281B390B05
:100880004FEF429FC001439F900D112424E630E0BA
:10089000B9010E941D13CB01865F8B8301C01B82AF
:1008A00063E0CE0101960E94450F28960FB6F8949A
:1008B000DEBF0FBECDBFDF91CF910895CF92DF9203
:1008C000EF92FF920F931F93CF93DF93CDB7DEB7D5
:1008D0006D970FB6F894DEBF0FBECDBF81E08D835C
:1008E0008AE999E9A9E9BEE38E839F83A887B9873E
:1008F00080E090E0A0E8BFE38A879B87AC87BD8754
:1009000088E893E19F878E8788E893E1998B888BAD
:10091000ECD5909312028093110220910F02309136
:10092000100280911102909112027901E81AF90ADD
:10093000C701AA2797FDA095BA2F8A8B9B8BAC8BFA
:10094000BD8B2091130230911402409115025091F9
:1009500016028A899B89AC89BD89820F931FA41FC7
:10096000B51F8093130290931402A0931502B093C5
:10097000160280911102909112029C01442737FDCA
:100980004095542F8091170290911802A09119025E
:10099000B0911A0279018A01E81AF90A0A0B1B0BB5
:1009A000D801C7018E8B9F8BA88FB98F80911102C0
:1009B00090911202AA2797FDA095BA2F8093170253
:1009C00090931802A0931902B0931A028E859F8506
:1009D0009C01442737FD4095542F8091130290913C
:1009E0001402A0911502B0911602281739074A0780
:1009F0005B0774F48E859F85AA2797FDA095BA2F73
:100A00008093130290931402A0931502B0931602E0
:100A10008E859F859195819591099C01442737FD8D
:100A20004095542F8091130290911402A0911502C9
:100A3000B091160282179307A407B5078CF48E8530
:100A40009F85919581959109AA2797FDA095BA2F29
:100A50008093130290931402A0931502B093160290
:100A60008D81282F30E040E050E08A899B89AC8955
:100A7000BD89BC01CD010E940E13DC01CB01BC017C
:100A8000CD010E94A4116B017C0180911302909111
:100A90001402A0911502B0911602BC01CD010E9472
:100AA000A411DC01CB012E813F8148855985BC0111
:100AB000CD010E94AB12DC01CB019C01AD01C7014D
:100AC000B6010E94A110DC01CB016C017D016E8991
:100AD0007F89888D998D0E94A411DC01CB012A8524
:100AE0003B854C855D85BC01CD010E94AB12DC01CC
:100AF000CB019C01AD01C701B6010E94A110DC0130
:100B0000CB01BC01CD010E947111DC01CB018983B5
:100B10009A83AB83BC83888999899C01442737FDDC
:100B20004095542F89819A81AB81BC812817390760
:100B30004A075B0754F488899989AA2797FDA095ED
:100B4000BA2F89839A83AB83BC83888999899195CD
:100B5000819591099C01442737FD4095542F898147
:100B60009A81AB81BC8182179307A407B5076CF407
:100B700088899989919581959109AA2797FDA095D2
:100B8000BA2F89839A83AB83BC8389819A81AB8195
:100B9000BC8124E630E040E050E0BC01CD010E9481
:100BA0003013DA01C9018E5C28DE6D960FB6F89419
:100BB000DEBF0FBECDBFDF91CF911F910F91FF9090
:100BC000EF90DF90CF900895CF93DF9300D01F92E6
:100BD000CDB7DEB769837A838B839C8320E030E0D6
:100BE00048EC52E469817A818B819C810E940911D1
:100BF000DC01CB0189839A83AB83BC8380910D0296
:100C000090910E02AA2797FDA095BA2FBC01CD01A5
:100C10000E94A411DC01CB0129813A814B815C81C6
:100C2000BC01CD010E94AB12DC01CB01BC01CD01A6
:100C30000E947111DC01CB019093100280930F028E
:100C40000F900F900F900F90DF91CF910895CF9359
:100C5000DF931F92CDB7DEB7898381E091E021E079
:100C600031E0F90120812062FC0120838981882301
:100C700051F082E091E022E031E0F90120812F7D06
:100C8000FC01208309C082E091E022E031E0F9011B
:100C900020812062FC0120830F90DF91CF91089585
:100CA0000F931F93CF93DF93CDB7DEB7C854D1090D
:100CB0000FB6F894DEBF0FBECDBF8FE59EDD80E09E
:100CC00090E0A0E2B1E48B839C83AD83BE8320E0FF
:100CD00030E04AE755E46B817C818D819E810E94E2
:100CE000AB12DC01CB018F839887A987BA8720E0FC
:100CF00030E040E85FE36F81788589859A850E94BE
:100D0000051188232CF481E090E09C878B873FC0FD
:100D100020E03FEF4FE757E46F81788589859A851A
:100D20000E94A71218164CF520E030E040E251E492
:100D30006B817C818D819E810E94AB12DC01CB0195
:100D4000BC01CD010E947611DC01CB019C878B8711
:100D50000FC080E991E09E878D878D859E850197E4
:100D6000F1F79E878D878B859C8501979C878B8764
:100D70008B859C85009769F714C06F81788589857C
:100D80009A850E947611DC01CB019C878B878B852D
:100D90009C85988B8F878F8598890197F1F7988B21
:100DA0008F87A3D39A8389838A818F9389818F9335
:100DB00087E092E0892F8F9387E092E08F930E94E3
:100DC000EB130F900F900F900F9086C080E090E093
:100DD000A0E2B1E4898B9A8BAB8BBC8B20E030E036
:100DE0004AE755E469897A898B899C890E94AB120C
:100DF000DC01CB018D8B9E8BAF8BB88F20E030E078
:100E000040E85FE36D897E898F89988D0E94051186
:100E100088232CF481E090E09A8F898F3FC020E0F6
:100E20003FEF4FE757E46D897E898F89988D0E9447
:100E3000A71218164CF520E030E040E251E4698931
:100E40007A898B899C890E94AB12DC01CB01BC01A1
:100E5000CD010E947611DC01CB019A8F898F0FC0E2
:100E600080E991E09C8F8B8F8B8D9C8D0197F1F7A2
:100E70009C8F8B8F898D9A8D01979A8F898F898D01
:100E80009A8D009769F714C06D897E898F89988D36
:100E90000E947611DC01CB019A8F898F898D9A8D02
:100EA0009E8F8D8F8D8D9E8D0197F1F79E8F8D8FEB
:100EB0001CD39A8389838A818F9389818F9387E05A
:100EC00092E0892F8F9387E092E08F930E94EB133B
:100ED0000F900F900F900F9008D39C0189819A81F9
:100EE0002817390709F072CFEAD182E386DC80E067
:100EF00090E0A8E4B3E48F8F98A3A9A3BAA320E05D
:100F000030E04AE755E46F8D78A189A19AA10E944B
:100F1000AB12DC01CB018BA39CA3ADA3BEA320E04D
:100F200030E040E85FE36BA17CA18DA19EA10E940F
:100F3000051188232CF481E090E098A78FA33FC08F
:100F400020E03FEF4FE757E46BA17CA18DA19EA16C
:100F50000E94A71218164CF520E030E040E251E460
:100F60006F8D78A189A19AA10E94AB12DC01CB01FF
:100F7000BC01CD010E947611DC01CB0198A78FA3A3
:100F80000FC080E991E09AA789A789A59AA5019742
:100F9000F1F79AA789A78FA198A5019798A78FA382
:100FA0008FA198A5009769F714C06BA17CA18DA1B2
:100FB0009EA10E947611DC01CB0198A78FA38FA17F
:100FC00098A59CA78BA78BA59CA50197F1F79CA73B
:100FD0008BA785E012DC80E090E0A0E2B1E48DA771
:100FE0009EA7AFA7B8AB20E030E04AE755E46DA577
:100FF0007EA58FA598A90E94AB12DC01CB0189AB1D
:101000009AABABABBCAB20E030E040E85FE369A952
:101010007AA98BA99CA90E94051188232CF481E050
:1010200090E09EAB8DAB3FC020E03FEF4FE757E431
:1010300069A97AA98BA99CA90E94A71218164CF538
:1010400020E030E040E251E46DA57EA58FA598A98F
:101050000E94AB12DC01CB01BC01CD010E947611D4
:10106000DC01CB019EAB8DAB0FC080E991E098AF66
:101070008FAB8FA998AD0197F1F798AF8FAB8DA982
:101080009EA901979EAB8DAB8DA99EA9009769F78C
:1010900014C069A97AA98BA99CA90E947611DC01C8
:1010A000CB019EAB8DAB8DA99EA99AAF89AF89ADBF
:1010B0009AAD0197F1F79AAF89AF17D29A838983D6
:1010C0008A818F9389818F9387E092E0892F8F9314
:1010D00087E092E08F930E94EB130F900F900F9098
:1010E0000F90C9C080E090E0A0E2B1E48BAF9CAF6C
:1010F000ADAFBEAF8E01015C1F4F20E030E04AE78C
:1011000055E46BAD7CAD8DAD9EAD0E94AB12DC01A4
:10111000CB01F80180839183A283B383CE01CF9664
:1011200020E030E040E85FE3FC0160817181828172
:1011300093810E94051188234CF4CE018D5B9F4F53
:1011400021E030E0FC013183208367C0CE01CF96DF
:1011500020E03FEF4FE757E4FC016081718182811D
:1011600093810E94A71218160CF046C020E030E0D0
:1011700040E251E46BAD7CAD8DAD9EAD0E94AB12F3
:10118000DC01CB018E010D5B1F4FBC01CD010E9424
:101190007611DC01CB01F8019183808324C0CE015C
:1011A0008B5B9F4F20E931E0FC0131832083CE012E
:1011B0008B5B9F4FFC01808191810197F1F79E012C
:1011C0002B5B3F4FF90191838083CE018D5B9F4F55
:1011D0009E012D5B3F4FF901208131812150310962
:1011E000FC0131832083CE018D5B9F4FFC01808108
:1011F00091810097A1F62BC08E010D5B1F4FCE0190
:10120000CF96FC0160817181828193810E94761169
:10121000DC01CB01F80191838083CE01895B9F4F74
:101220009E012D5B3F4FF90120813181FC0131830B
:101230002083CE01895B9F4FFC01808191810197C2
:10124000F1F79E01295B3F4FF901918380834DD1D6
:101250009A8389838A818F9389818F9387E092E033
:10126000892F8F9387E092E08F930E94EB130F906A
:101270000F900F900F9039D19C0189819A81281786
:10128000390709F02FCF89819A819195819591092C
:1012900090930E0280930D0212D082E3AEDA809119
:1012A0000D0290910E02C85BDF4F0FB6F894DEBFBF
:1012B0000FBECDBFDF91CF911F910F910895CF93B6
:1012C000DF93CDB7DEB7A0970FB6F894DEBF0FBEA1
:1012D000CDBF81E091E021E031E0F901208120647F
:1012E000FC01208382E091E022E031E0F9012081DD
:1012F0002F7BFC01208380E090E0A0EAB1E48983A9
:101300009A83AB83BC832BEA3AEA4AEA50E46981C8
:101310007A818B819C810E94AB12DC01CB018D8391
:101320009E83AF83B88720E030E040E850E46981D5
:101330007A818B819C810E94AB12DC01CB01898771
:101340009A87AB87BC8720E030E040E85FE36D819F
:101350007E818F81988559D788231CF481E08D8701
:10136000ACC020E03FEF4FE757E469857A858B8575
:101370009C850E94A71218160CF077C020E030E080
:101380004AE754E469817A818B819C8142D7DC01F0
:10139000CB018E879F87A88BB98B20E030E04AE78E
:1013A00055E46E857F85888999890E94AB12DC019E
:1013B000CB018A8B9B8BAC8BBD8B20E030E040E86F
:1013C0005FE36A897B898C899D891FD788232CF4E8
:1013D00081E090E09F8B8E8B3DC020E03FEF4FE798
:1013E00057E46A897B898C899D890E94A712181607
:1013F00044F520E030E040E251E46E857F85888945
:1014000099890E94AB12DC01CB01BC01CD016ED7E2
:10141000DC01CB019F8B8E8B0FC080E991E0998F0F
:10142000888F888D998D0197F1F7998F888F8E8994
:101430009F8901979F8B8E8B8E899F89009769F773
:101440003CC06A897B898C899D8950D7DC01CB019E
:101450009F8B8E8B8E899F899B8F8A8F8A8D9B8D88
:101460000197F1F79B8F8A8F28C020E030E04FE78B
:1014700053E46D817E818F8198850E94A712181692
:10148000A4F469857A858B859C8530D7DC01CB01F6
:101490009D8F8C8F8C8D9D8D9F8F8E8F8E8D9F8D30
:1014A0000197F1F79F8F8E8F0EC06D817E818F81A6
:1014B00098851CD7DC01CB018D878D8588A388A1F9
:1014C0008A95F1F788A382E091E022E031E0F9010A
:1014D00020812064FC012083A0960FB6F894DEBF23
:1014E0000FBECDBFDF91CF910895CF93DF93CDB7DE
:1014F000DEB7C254D1090FB6F894DEBF0FBECDBF20
:1015000081E0A5DB81E091E021E031E0F90120817B
:101510002860FC01208382E091E022E031E0F901C3
:101520002081277FFC01208380E090E0A0EAB1E4E5
:101530008B839C83AD83BE832BEA3AEA4AEA50E46C
:101540006B817C818D819E810E94AB12DC01CB017D
:101550008F839887A987BA8720E030E040E850E47D
:101560006B817C818D819E81F6D7DC01CB018B87DD
:101570009C87AD87BE8720E030E040E85FE36F8165
:10158000788589859A8541D688231CF481E08F87E8
:10159000A7C020E03FEF4FE757E46B857C858D8542
:1015A0009E85D5D718160CF074C020E030E04AE7CD
:1015B00054E46B817C818D819E812BD6DC01CB0133
:1015C000888B998BAA8BBB8B20E030E04AE755E4EF
:1015D000688979898A899B89BED7DC01CB018C8B8C
:1015E0009D8BAE8BBF8B20E030E040E85FE36C89E1
:1015F0007D898E899F8909D688232CF481E090E02B
:10160000998F888F3BC020E03FEF4FE757E46C890C
:101610007D898E899F899BD718163CF520E030E0A4
:1016200040E251E4688979898A899B8994D7DC01F1
:10163000CB01BC01CD015AD6DC01CB01998F888F3B
:101640000FC080E991E09B8F8A8F8A8D9B8D0197D7
:10165000F1F79B8F8A8F888D998D0197998F888F4D
:10166000888D998D009769F73BC06C897D898E893B
:101670009F893CD6DC01CB01998F888F888D998D0D
:101680009D8F8C8F8C8D9D8D0197F1F79D8F8C8F09
:1016900027C020E030E04FE753E46F8178858985EB
:1016A0009A8555D71816A4F46B857C858D859E8503
:1016B0001DD6DC01CB019F8F8E8F8E8D9F8D99A3C0
:1016C00088A388A199A10197F1F799A388A30EC0D7
:1016D0006F81788589859A8509D6DC01CB018F8752
:1016E0008F858AA38AA18A95F1F78AA386E091E083
:1016F000FC018081882F90E0982F88279A83898326
:1017000082E091E022E031E0F90120812860FC01D3
:10171000208380E090E0A0EAB1E48BA39CA3ADA37A
:10172000BEA32BEA3AEA4AEA50E46BA17CA18DA160
:101730009EA111D7DC01CB018FA398A7A9A7BAA7B7
:1017400020E030E040E850E46BA17CA18DA19EA197
:1017500002D7DC01CB018BA79CA7ADA7BEA720E0D9
:1017600030E040E85FE36FA178A589A59AA54DD543
:1017700088231CF481E08FA7B3C020E03FEF4FE740
:1017800057E46BA57CA58DA59EA5E1D618160CF097
:1017900074C020E030E04AE754E46BA17CA18DA145
:1017A0009EA137D5DC01CB0188AB99ABAAABBBAB13
:1017B00020E030E04AE755E468A979A98AA99BA905
:1017C000CAD6DC01CB018CAB9DABAEABBFAB20E08E
:1017D00030E040E85FE36CA97DA98EA99FA915D5EB
:1017E00088232CF481E090E099AF88AF3BC020E0E3
:1017F0003FEF4FE757E46CA97DA98EA99FA9A7D613
:1018000018163CF520E030E040E251E468A979A9DF
:101810008AA99BA9A0D6DC01CB01BC01CD0166D56C
:10182000DC01CB0199AF88AF0FC080E991E09BAF9D
:101830008AAF8AAD9BAD0197F1F79BAF8AAF88ADB8
:1018400099AD019799AF88AF88AD99AD009769F7C9
:1018500047C06CA97DA98EA99FA948D5DC01CB0101
:1018600099AF88AF88AD99AD9DAF8CAF8CAD9DAD74
:101870000197F1F79DAF8CAF33C020E030E04FE728
:1018800053E46FA178A589A59AA561D6181604F529
:101890006BA57CA58DA59EA529D5DC01CB019FAFAD
:1018A0008EAFCE01805C9F4F2EAD3FADFC013183EA
:1018B0002083CE01805C9F4FFC0180819181019744
:1018C000F1F79E01205C3F4FF901918380831BC09B
:1018D0006FA178A589A59AA509D5DC01CB018FA7B1
:1018E000CE018E5B9F4F2FA5FC012083CE018E5B26
:1018F0009F4FFC018081282F2A95F1F7CE018E5B46
:101900009F4FFC01208386E091E0FC018081882FBD
:1019100090E029813A81820F931F9A83898380E026
:1019200096D989819A81919581959109CE5BDF4FF6
:101930000FB6F894DEBF0FBECDBFDF91CF910895F3
:10194000CF93DF93CDB7DEB780E390E020E330E0C4
:10195000F90120812260FC01208381E390E021E3F2
:1019600030E0F90120812260FC012083DF91CF91DA
:101970000895CF93DF93CDB7DEB72E970FB6F894C7
:10198000DEBF0FBECDBF81E390E021E330E0F9017F
:1019900020812D7FFC01208380E090E0ACE8B2E460
:1019A00089839A83AB83BC8320E030E04AE755E427
:1019B00069817A818B819C81CED5DC01CB018D83BD
:1019C0009E83AF83B88720E030E040E85FE36D811D
:1019D0007E818F81988519D488232CF481E090E052
:1019E0009A8789873BC020E03FEF4FE757E46D813E
:1019F0007E818F819885ABD518163CF520E030E0CC
:101A000040E251E469817A818B819C81A4D5DC011B
:101A1000CB01BC01CD016AD4DC01CB019A87898757
:101A20000FC080E991E09C878B878B859C8501970F
:101A3000F1F79C878B8789859A8501979A87898793
:101A400089859A85009769F713C06D817E818F81A2
:101A500098854CD4DC01CB019A87898789859A8542
:101A60009E878D878D859E850197F1F79E878D874F
:101A700081E390E021E330E0F90120812260FC0164
:101A800020832E960FB6F894DEBF0FBECDBFDF9138
:101A9000CF910895CF93DF93CDB7DEB784E290E086
:101AA00024E230E0F90120812160FC01208384E2FE
:101AB00090E024E230E0F90120812260FC012083E3
:101AC00084E290E024E230E0F90120812460FC010E
:101AD000208384E290E024E230E0F9012081277F36
:101AE000FC01208385E290E025E230E0F9012081CD
:101AF0002860FC01208384E290E024E230E0F901D8
:101B000020812068FC0120838CE490E02CE430E00C
:101B1000F90120812064FC0120838CE490E02CE416
:101B200030E0F90120812160FC01208385E290E012
:101B300025E230E0F90120812160FC0120838CE462
:101B400090E02CE430E0F90120812061FC01208349
:101B5000DF91CF910895CF93DF931F92CDB7DEB77A
:101B600089838EE490E02981FC0120838DE490E05C
:101B7000FC0180818823D4F78EE490E0FC01808111
:101B80000F90DF91CF910895CF93DF93CDB7DEB75C
:101B900085E290E025E230E0F90120812F77FC0119
:101BA0002083DF91CF910895CF93DF93CDB7DEB738
:101BB00085E290E025E230E0F90120812068FC0117
:101BC0002083DF91CF910895CF93DF93CDB7DEB718
:101BD00080E890E020E830E0F90120812E7FFC01D0
:101BE000208380E890E020E830E0F9012081226045
:101BF000FC01208381E890E021E830E0F9012081B8
:101C00002860FC01208381E890E021E830E0F901C0
:101C100020812061FC01208386E890E020E43CE9FB
:101C2000FC013183208381E890E021E830E0F90174
:101C300020812E7FFC01208381E890E021E830E0C4
:101C4000F90120812260FC01208381E890E021E8F5
:101C500030E0F90120812B7FFC01208380E890E0B7
:101C600020E830E0F90120812F7BFC01208380E80F
:101C700090E020E830E0F90120812068FC01208319
:101C800084E290E024E230E0F90120812062FC014E
:101C90002083DF91CF910895CF93DF93CDB7DEB747
:101CA00080E990E020E930E0F90120812E7FFC01FD
:101CB000208380E990E020E930E0F90120812D7F48
:101CC000FC01208381E990E021E930E0F9012081E5
:101CD0002860FC01208381E990E021E930E0F901EE
:101CE00020812F7EFC01208388E990E02CE930E000
:101CF000FC013183208381E990E021E930E0F901A2
:101D000020812160FC01208381E990E021E930E01D
:101D1000F90120812D7FFC01208381E990E021E9F8
:101D200030E0F90120812460FC01208381E790E00C
:101D300021E730E0F90120812260FC012083DF915E
:101D4000CF9108950F931F93CF93DF9300D000D0CE
:101D5000CDB7DEB78D836E838D81853610F084E636
:101D60008D838E81882331F094E68D81292F281B65
:101D7000822F8D838D81882F90E0A0E0B0E0BC01A0
:101D8000CD01E0D2DC01CB0120E030E048EC52E4B0
:101D9000BC01CD013ED2DC01CB012AE939E949E998
:101DA0005FE3BC01CD01D7D3DC01CB0126E636E6EB
:101DB00046E65FE3BC01CD01C4D1DC01CB0120E0EC
:101DC00030E040EA51E4BC01CD0123D2DC01CB017B
:101DD00089839A83AB83BC8308E810E020E034E277
:101DE00044E75BE469817A818B819C81B4D3DC0117
:101DF000CB012AE037ED43EA5CE3BC01CD01ABD374
:101E0000DC01CB0120E030E040E051E4BC01CD0139
:101E100000D2DC01CB01BC01CD01D1D2DC01CB0170
:101E2000BC01CD0163D2DC01CB01F8019183808339
:101E300026960FB6F894DEBF0FBECDBFDF91CF91CF
:101E40001F910F910895CF93DF93CDB7DEB788EB45
:101E500090E02CE0FC0120838BEB90E02FEFFC0165
:101E600020838CEB90E024E0FC012083DF91CF9174
:101E70000895CF93DF93CDB7DEB78CEB90E0FC01F4
:101E800080818170DF91CF910895CF93DF9300D04F
:101E90001F92CDB7DEB79B838A836C830000E9DF96
:101EA0008823E9F78C8180931F028A819B81FC0142
:101EB000808180931B028A819B81FC018081882F15
:101EC00090E0817099270097D1F481E0898313C055
:101ED0008981882F90E02981222F30E04A815B811F
:101EE000240F351FF9012081855E9D4FFC01208361
:101EF00089818F5F898399818C81981748F310922B
:101F0000200288EF809306028CEB90E025EAFC012A
:101F100020830F900F900F900F90DF91CF91089535
:101F20001F920F9200905F000F92112400905B00AF
:101F30000F922F933F934F935F938F939F93AF9302
:101F4000BF93EF93FF93CF93DF93CDB7DEB789EBCA
:101F500090E0FC018081882F90E0AA2797FDA09552
:101F6000BA2F48E050E020E530E0841B950B28179D
:101F7000390708F472C08E589F4FFC018DC3109230
:101F800021029091210280911F029817B0F48BEBEF
:101F900090E02091210231E0320F30932102222F74
:101FA00030E0255E3D4FF9012081FC0120838CEB60
:101FB00090E025E8FC0120835BC0809120028160D5
:101FC000809320028CEB90E024E9FC01208350C038
:101FD0008091210291E0980F90932102882F90E048
:101FE0002BEB30E0F9012081855E9D4FFC012083C1
:101FF00080912102282F30E080911F02882F90E0ED
:1020000001972817390734F48CEB90E025ECFC019C
:1020100020832EC08CEB90E025E8FC01208328C0B3
:1020200080912102882F90E02BEB30E0F901208194
:10203000855E9D4FFC01208380912002816080930A
:1020400020028CEB90E024E9FC01208311C08CEB92
:1020500090E025EAFC0120830BC089EB90E0FC01B5
:102060008081809306028CEB90E024E0FC012083C9
:10207000DF91CF91FF91EF91BF91AF919F918F91A0
:102080005F914F913F912F910F9000925B000F90C5
:1020900000925F000F901F901895CF93DF931F92CF
:1020A000CDB7DEB7898380EC90E0FC018081882F7A
:1020B00090E0807299270097B1F386EC90E0298137
:1020C000FC0120830F90DF91CF910895CF93DF9390
:1020D000CDB7DEB780EC90E0FC0180818823D4F797
:1020E00086EC90E0FC018081DF91CF910895CF9341
:1020F000DF931F921F92CDB7DEB79A83898385EC59
:1021000090E029813A81232F3327FC01208384EC3E
:1021100090E02981FC01208381EC90E028E1FC0122
:10212000208382EC90E02EE0FC01208366E670E1E3
:102130008DE490E106D30F900F90DF91CF91089539
:102140005058BB27AA270ED0B1C1A2D130F0A7D1D9
:1021500020F031F49F3F11F41EF497C10EF4E09586
:10216000E7FB64C1E92FB3D180F3BA1762077307A5
:102170008407950718F071F49EF5E2C10EF4E0951E
:102180000B2EBA2FA02D0B01B90190010C01CA0131
:10219000A0011124FF27591B99F0593F50F4503EDC
:1021A00068F11A16F040A22F232F342F4427585FCE
:1021B000F3CF469537952795A795F0405395C9F7E6
:1021C0007EF41F16BA0B620B730B840BBAF091509E
:1021D000A1F0FF0FBB1F661F771F881FC2F70EC03D
:1021E000BA0F621F731F841F48F487957795679510
:1021F000B795F7959E3F08F0B3CF9395880F08F0F9
:102200009927EE0F979587950895ECD008F481E013
:1022100008950CD04BC143D140F03AD130F021F4B5
:102220005F3F19F003C151118CC12FC150D198F3F8
:102230009923C9F35523B1F3951B550BBB27AA2747
:1022400062177307840738F09F5F5F4F220F331FB9
:10225000441FAA1FA9F333D00E2E3AF0E0E830D085
:1022600091505040E695001CCAF729D0FE2F27D088
:10227000660F771F881FBB1F261737074807AB0756
:10228000B0E809F0BB0B802DBF01FF2793585F4FCB
:102290002AF09E3F510568F0C9C053C15F3FECF37F
:1022A000983EDCF3869577956795B795F7959F5F90
:1022B000C9F7880F911D9695879597F90895E1E0E4
:1022C000660F771F881FBB1F621773078407BA0743
:1022D00020F0621B730B840BBA0BEE1F88F7E0959E
:1022E000089504D06894B1112CC10895F8D088F0F5
:1022F0009F5790F0B92F9927B751A0F0D1F0660FF2
:10230000771F881F991F1AF0BA95C9F712C0B1300C
:1023100081F016D1B1E0089513C1672F782F882777
:10232000B85F39F0B93FCCF3869577956795B3954B
:10233000D9F73EF490958095709561957F4F8F4FBA
:102340009F4F0895E89409C097FB3EF490958095BF
:10235000709561957F4F8F4F9F4F9923A9F0F92F6B
:1023600096E9BB279395F695879577956795B795E9
:10237000F111F8CFFAF4BB0F11F460FF1BC06F5FCF
:102380007F4F8F4F9F4F16C0882311F096E911C0E1
:10239000772321F09EE8872F762F05C0662371F002
:1023A00096E8862F70E060E02AF09A95660F771F16
:1023B000881FDAF7880F9695879597F90895A9D021
:1023C00080F09F3740F491110EF0BBC060E070E0E8
:1023D00080E89FEB089526F41B16611D711D811D79
:1023E0002BC045C0990F0008550FAA0BE0E8FEEF7F
:1023F00016161706E807F907C0F012161306E407C9
:10240000F50798F0621B730B840B950B39F40A26C1
:1024100061F0232B242B252B21F408950A2609F49F
:10242000A140A6958FEF811D811D089597F99F67A3
:1024300080E870E060E00895882371F4772321F04C
:102440009850872B762F07C0662311F499270DC06B
:102450009051862B70E060E02AF09A95660F771F06
:10246000881FDAF7880F9695879597F908959F3F0B
:1024700031F0915020F4879577956795B795880F3F
:10248000911D9695879597F908959FEF80EC089593
:1024900000240A9416161706180609060895002443
:1024A0000A9412161306140605060895092E0394BD
:1024B000000C11F4882352F0BB0F40F4BF2B11F431
:1024C00060FF04C06F5F7F4F8F4F9F4F089557FD90
:1024D0009058440F551F59F05F3F71F04795880F92
:1024E00097FB991F61F09F3F79F087950895121629
:1024F00013061406551FF2CF4695F1DF08C01616D5
:1025000017061806991FF1CF869571056105089485
:102510000895E5DFA0F0BEE7B91788F4BB279F3820
:1025200060F41616B11D672F782F8827985FF7CFB4
:10253000869577956795B11D93959639C8F308955B
:10254000E894BB2766277727CB0197F908954ADFE0
:1025500008F48FEF08950BD0A9CF9ADF28F09FDF02
:1025600018F0952309F062CF90CF1124EACFAFDFA6
:10257000A0F3959FD1F3950F50E0551F629FF00196
:10258000729FBB27F00DB11D639FAA27F00DB11DEF
:10259000AA1F649F6627B00DA11D661F829F222778
:1025A000B00DA11D621F739FB00DA11D621F839FFF
:1025B000A00D611D221F749F3327A00D611D231FD5
:1025C000849F600D211D822F762F6A2F11249F5723
:1025D00050408AF0E1F088234AF0EE0FFF1FBB1F46
:1025E000661F771F881F91505040A9F79E3F5105E5
:1025F00070F01CCFA6CF5F3FECF3983EDCF38695DE
:1026000077956795B795F795E7959F5FC1F7FE2B8F
:10261000880F911D9695879597F90895DB018F9303
:102620009F9340D0BF91AF91A29F800D911DA39F1A
:10263000900DB29F900D1124089597FB072E16F46C
:10264000009406D077FD08D037D007FC05D03EF4C3
:10265000909581959F4F0895709561957F4F08954E
:10266000052E97FB16F400940FD057FD05D038D0F7
:1026700007FC02D046F408C050954095309521954E
:102680003F4F4F4F5F4F089590958095709561959E
:102690007F4F8F4F9F4F0895EE0FFF1F0590F491CE
:1026A000E02D19943FD0A59F900DB49F900DA49F4D
:1026B000800D911D11240895AA1BBB1B51E107C079
:1026C000AA1FBB1FA617B70710F0A61BB70B881FC2
:1026D000991F5A95A9F780959095BC01CD01089551
:1026E000A1E21A2EAA1BBB1BFD010DC0AA1FBB1F16
:1026F000EE1FFF1FA217B307E407F50720F0A21B88
:10270000B30BE40BF50B661F771F881F991F1A94F4
:1027100069F760957095809590959B01AC01BD011E
:10272000CF010895A29FB001B39FC001A39F700D78
:10273000811D1124911DB29F700D811D1124911DC9
:1027400008950F931F93CF93DF93EC018B010097B4
:1027500031F46115710519F480E090E037C06EE046
:1027600070E081E090E036D2FC010097A9F380E8A8
:1027700083830115110571F01387028781E8838334
:102780008091220290912302892B21F4F09323025D
:10279000E09322022097C9F0D187C08783818260AD
:1027A00083838091240290912502892B71F4F09308
:1027B0002502E09324028091260290912702892B22
:1027C00021F4F0932702E0932602CF01DF91CF910D
:1027D0001F910F910895CF93DF93CDB7DEB7FE0120
:1027E000369661917191AF018091240290912502FA
:1027F00003D0DF91CF9108952F923F924F925F9235
:102800006F927F928F929F92AF92BF92CF92DF9200
:10281000EF92FF920F931F93CF93DF93CDB7DEB765
:102820002C970FB6F894DEBF0FBECDBF7C016B01B5
:102830008A01FC0117821682838181FFB0C1CE011B
:1028400001964C01F7019381F60193FD859193FF69
:1028500081916F01882309F49EC1853239F493FD7B
:10286000859193FF81916F01853221F4B70190E04A
:102870000FD3E8CF512C312C20E02032A0F48B3242
:1028800069F030F4803259F0833269F420612CC051
:102890008D3239F0803339F4216026C02260246003
:1028A00023C0286021C027FD27C030ED380F3A3003
:1028B00078F426FF06C0FAE05F9E300D1124532EF7
:1028C00013C08AE0389E300D1124332E20620CC0D4
:1028D0008E3221F426FD5FC1206406C08C3611F4CF
:1028E000206802C0883641F4F60193FD859193FF7C
:1028F00081916F018111C1CF982F9F7D95549330A5
:1029000028F40C5F1F4FFFE3F9830DC0833631F0CD
:10291000833771F0833509F057C021C0F8018081F9
:1029200089830E5F1F4F44244394512C540114C0DB
:102930003801F2E06F0E711CF801A080B18026FF13
:1029400003C0652D70E002C06FEF7FEFC5012C87DB
:1029500094D22C0183012C852F77222E16C03801AA
:10296000F2E06F0E711CF801A080B18026FF03C059
:10297000652D70E002C06FEF7FEFC5012C876BD231
:102980002C012C852068222E830123FC19C0832D65
:1029900090E048165906A0F4B70180E290E078D2A2
:1029A0003A94F5CFF50127FC859127FE81915F01CF
:1029B000B70190E06DD231103A94F1E04F1A51080E
:1029C0004114510479F7DEC0843611F0893631F5AF
:1029D000F80127FF07C060817181828193810C5FBC
:1029E0001F4F08C060817181882777FD8095982FDF
:1029F0000E5F1F4F2F76B22E97FF09C090958095DE
:102A0000709561957F4F8F4F9F4F2068B22E2AE0BF
:102A100030E0A4016FD2A82EA81843C0853729F44E
:102A20002F7EB22E2AE030E025C0F22FF97FBF2E94
:102A30008F36C1F018F4883579F0ADC0803719F0C1
:102A4000883721F0A8C02F2F2061B22EB4FE0DC010
:102A50008B2D8460B82E09C024FF0AC09F2F96607A
:102A6000B92E06C028E030E005C020E130E002C009
:102A700020E132E0F801B7FE07C0608171818281F8
:102A800093810C5F1F4F06C06081718180E090E0F0
:102A90000E5F1F4FA4012ED2A82EA818FB2DFF7782
:102AA000BF2EB6FE0BC02B2D2E7FA51450F4B4FE06
:102AB0000AC0B2FC08C02B2D2E7E05C07A2C2B2D0F
:102AC00003C07A2C01C0752C24FF0DC0FE01EA0D55
:102AD000F11D8081803311F4297E09C022FF06C0D8
:102AE0007394739404C0822F867809F0739423FD45
:102AF00012C020FF06C05A2C731418F4530C571838
:102B0000732C731460F4B70180E290E02C87C0D17D
:102B100073942C85F6CF731410F4371801C0312C40
:102B200024FF11C0B70180E390E02C87B1D12C8540
:102B300022FF16C021FF03C088E590E002C088E7AD
:102B400090E0B7010CC0822F867851F021FD02C0C1
:102B500080E201C08BE227FD8DE2B70190E098D1C1
:102B6000A51430F4B70180E390E092D15A94F8CFE5
:102B7000AA94F401EA0DF11D8081B70190E088D19B
:102B8000A110F6CF332009F45DCEB70180E290E0CA
:102B90007FD13A94F7CFF7018681978102C08FEFFA
:102BA0009FEF2C960FB6F894DEBF0FBECDBFDF911E
:102BB000CF911F910F91FF90EF90DF90CF90BF903A
:102BC000AF909F908F907F906F905F904F903F90CD
:102BD0002F9008950F931F93CF93DF93869F8001CB
:102BE000879F100D969F100D1124C8010DD0EC0188
:102BF000009721F0A80160E070E038D1CE01DF91AC
:102C0000CF911F910F910895CF93DF93823091055B
:102C100010F482E090E0E0912A02F0912B0220E093
:102C200030E0A0E0B0E0309739F1408151814817A1
:102C30005907B8F04817590771F4828193811097AA
:102C400029F013969C938E9312972CC090932B028D
:102C500080932A0227C02115310531F0421753070E
:102C600018F0A901DB0101C0EF019A01BD01DF01EC
:102C70000280F381E02DD7CF21153105F9F0281B13
:102C8000390B2430310580F48A819B8161157105EF
:102C900021F0FB019383828304C090932B028093E5
:102CA0002A02FE01329644C0FE01E20FF31F819317
:102CB000919322503109398328833AC02091280208
:102CC00030912902232B41F420910202309103021A
:102CD00030932902209328022091000230910102B2
:102CE0002115310541F42DB73EB7409104025091B2
:102CF0000502241B350BE0912802F0912902E2170E
:102D0000F307A0F42E1B3F0B2817390778F0AC010E
:102D10004E5F5F4F2417350748F04E0F5F1F5093EB
:102D20002902409328028193919302C0E0E0F0E0F1
:102D3000CF01DF91CF910895CF93DF93009709F4EE
:102D400087C0FC01329713821282C0912A02D0916F
:102D50002B02209781F420813181280F391F809127
:102D60002802909129028217930779F5F09329029E
:102D7000E09328026DC0DE0120E030E0AE17BF070F
:102D800050F412964D915C9113979D014115510598
:102D900009F1DA01F3CFB383A28340815181840F1B
:102DA000951F8A179B0771F48D919C911197840F41
:102DB000951F02969183808312968D919C91139713
:102DC000938382832115310529F4F0932B02E0933C
:102DD0002A023EC0D9011396FC93EE9312974D91AF
:102DE0005D91A40FB51FEA17FB0779F480819181EB
:102DF000840F951F0296D90111969C938E93828120
:102E0000938113969C938E931297E0E0F0E08A8171
:102E10009B81009719F0FE01EC01F9CFCE010296DB
:102E200028813981820F931F209128023091290235
:102E30002817390769F4309729F410922B02109261
:102E40002A0202C013821282D0932902C093280260
:102E5000DF91CF910895FC01059061507040011001
:102E6000D8F7809590958E0F9F1F0895DC0101C0C3
:102E70006D9341505040E0F70895FC01615070405F
:102E800001900110D8F7809590958E0F9F1F08959F
:102E90000F931F93CF93DF93182F092FEB018B8193
:102EA00081FD03C08FEF9FEF20C082FF10C04E81D5
:102EB0005F812C813D81421753077CF4E881F981C1
:102EC0009F012F5F3F4F39832883108306C0E88519
:102ED000F985812F1995892B29F72E813F812F5F45
:102EE0003F4F3F832E83812F902FDF91CF911F91F2
:102EF0000F910895FA01AA27283051F1203181F16C
:102F0000E8946F936E7F6E5F7F4F8F4F9F4FAF4FF1
:102F1000B1E03ED0B4E03CD0670F781F891F9A1F04
:102F2000A11D680F791F8A1F911DA11D6A0F711DB8
:102F3000811D911DA11D20D009F468943F912AE0C4
:102F4000269F11243019305D3193DEF6CF010895AC
:102F5000462F4770405D4193B3E00FD0C9F7F6CFDD
:102F6000462F4F70405D4A3318F0495D31FD4052A5
:102F7000419302D0A9F7EACFB4E0A695979587953B
:102F800077956795BA95C9F700976105710508951A
:102F90009B01AC010A2E06945795479537952795C6
:102FA000BA95C9F7620F731F841F951FA01D08955E
:042FB000F894FFCFC3
:0C2FB40000002C022000F82569200A0013
:00000001FF
